{
  "contractName": "BridgeBsc",
  "abi": [
    {
      "inputs": [
        {
          "internalType": "address",
          "name": "token",
          "type": "address"
        }
      ],
      "stateMutability": "nonpayable",
      "type": "constructor"
    },
    {
      "anonymous": false,
      "inputs": [
        {
          "indexed": false,
          "internalType": "address",
          "name": "from",
          "type": "address"
        },
        {
          "indexed": false,
          "internalType": "address",
          "name": "to",
          "type": "address"
        },
        {
          "indexed": false,
          "internalType": "uint256",
          "name": "amount",
          "type": "uint256"
        },
        {
          "indexed": false,
          "internalType": "uint256",
          "name": "date",
          "type": "uint256"
        },
        {
          "indexed": false,
          "internalType": "uint256",
          "name": "nonce",
          "type": "uint256"
        },
        {
          "indexed": false,
          "internalType": "bytes",
          "name": "signature",
          "type": "bytes"
        },
        {
          "indexed": true,
          "internalType": "enum BridgeBase.Step",
          "name": "step",
          "type": "uint8"
        }
      ],
      "name": "Transfer",
      "type": "event"
    },
    {
      "inputs": [],
      "name": "admin",
      "outputs": [
        {
          "internalType": "address",
          "name": "",
          "type": "address"
        }
      ],
      "stateMutability": "view",
      "type": "function",
      "constant": true
    },
    {
      "inputs": [
        {
          "internalType": "address",
          "name": "",
          "type": "address"
        },
        {
          "internalType": "uint256",
          "name": "",
          "type": "uint256"
        }
      ],
      "name": "processedNonces",
      "outputs": [
        {
          "internalType": "bool",
          "name": "",
          "type": "bool"
        }
      ],
      "stateMutability": "view",
      "type": "function",
      "constant": true
    },
    {
      "inputs": [],
      "name": "retrieveTokenBalanceFromContract",
      "outputs": [],
      "stateMutability": "nonpayable",
      "type": "function"
    },
    {
      "inputs": [],
      "name": "token",
      "outputs": [
        {
          "internalType": "contract IToken",
          "name": "",
          "type": "address"
        }
      ],
      "stateMutability": "view",
      "type": "function",
      "constant": true
    },
    {
      "inputs": [
        {
          "internalType": "address",
          "name": "to",
          "type": "address"
        },
        {
          "internalType": "uint256",
          "name": "amount",
          "type": "uint256"
        },
        {
          "internalType": "uint256",
          "name": "nonce",
          "type": "uint256"
        },
        {
          "internalType": "bytes",
          "name": "signature",
          "type": "bytes"
        }
      ],
      "name": "burn",
      "outputs": [],
      "stateMutability": "nonpayable",
      "type": "function"
    },
    {
      "inputs": [
        {
          "internalType": "address",
          "name": "from",
          "type": "address"
        },
        {
          "internalType": "address",
          "name": "to",
          "type": "address"
        },
        {
          "internalType": "uint256",
          "name": "amount",
          "type": "uint256"
        },
        {
          "internalType": "uint256",
          "name": "nonce",
          "type": "uint256"
        },
        {
          "internalType": "bytes",
          "name": "signature",
          "type": "bytes"
        }
      ],
      "name": "mint",
      "outputs": [],
      "stateMutability": "nonpayable",
      "type": "function"
    }
  ],
  "bytecode": "0x608060405234801561001057600080fd5b506040516200117e3803806200117e833981810160405281019061003491906100d2565b80336000806101000a81548173ffffffffffffffffffffffffffffffffffffffff021916908373ffffffffffffffffffffffffffffffffffffffff16021790555080600160006101000a81548173ffffffffffffffffffffffffffffffffffffffff021916908373ffffffffffffffffffffffffffffffffffffffff1602179055505050610144565b6000815190506100cc8161012d565b92915050565b6000602082840312156100e457600080fd5b60006100f2848285016100bd565b91505092915050565b60006101068261010d565b9050919050565b600073ffffffffffffffffffffffffffffffffffffffff82169050919050565b610136816100fb565b811461014157600080fd5b50565b61102a80620001546000396000f3fe608060405234801561001057600080fd5b50600436106100625760003560e01c806352555702146100675780636be693a5146100835780637cc702401461008d5780638a94b05f146100bd578063f851a440146100d9578063fc0c546a146100f7575b600080fd5b610081600480360381019061007c919061099a565b610115565b005b61008b61042b565b005b6100a760048036038101906100a29190610a2c565b610590565b6040516100b49190610df6565b60405180910390f35b6100d760048036038101906100d29190610a68565b6105bf565b005b6100e16107df565b6040516100ee9190610d11565b60405180910390f35b6100ff610803565b60405161010c9190610e56565b60405180910390f35b600061014c878787876040516020016101319493929190610c9d565b60405160208183030381529060405280519060200120610829565b90508673ffffffffffffffffffffffffffffffffffffffff166101b38285858080601f016020809104026020016040519081016040528093929190818152602001838380828437600081840152601f19601f82011690508083019250505050505050610859565b73ffffffffffffffffffffffffffffffffffffffff1614610209576040517f08c379a000000000000000000000000000000000000000000000000000000000815260040161020090610e91565b60405180910390fd5b60001515600260008973ffffffffffffffffffffffffffffffffffffffff1673ffffffffffffffffffffffffffffffffffffffff168152602001908152602001600020600086815260200190815260200160002060009054906101000a900460ff161515146102ad576040517f08c379a00000000000000000000000000000000000000000000000000000000081526004016102a490610e71565b60405180910390fd5b6001600260008973ffffffffffffffffffffffffffffffffffffffff1673ffffffffffffffffffffffffffffffffffffffff168152602001908152602001600020600086815260200190815260200160002060006101000a81548160ff021916908315150217905550600160009054906101000a900473ffffffffffffffffffffffffffffffffffffffff1673ffffffffffffffffffffffffffffffffffffffff166340c10f1987876040518363ffffffff1660e01b8152600401610373929190610dcd565b600060405180830381600087803b15801561038d57600080fd5b505af11580156103a1573d6000803e3d6000fd5b50505050600160038111156103df577f4e487b7100000000000000000000000000000000000000000000000000000000600052602160045260246000fd5b7fce5a9b86edd3b998c3948a7934c7ecf7dba73c4c5bcf56cf576bca4aa2beeb308888884289898960405161041a9796959493929190610d63565b60405180910390a250505050505050565b6000600160009054906101000a900473ffffffffffffffffffffffffffffffffffffffff1673ffffffffffffffffffffffffffffffffffffffff166370a08231306040518263ffffffff1660e01b81526004016104889190610d11565b602060405180830381600087803b1580156104a257600080fd5b505af11580156104b6573d6000803e3d6000fd5b505050506040513d601f19601f820116820180604052508101906104da9190610ae8565b9050600160009054906101000a900473ffffffffffffffffffffffffffffffffffffffff1673ffffffffffffffffffffffffffffffffffffffff1663671afbce3060008054906101000a900473ffffffffffffffffffffffffffffffffffffffff16846040518463ffffffff1660e01b815260040161055b93929190610d2c565b600060405180830381600087803b15801561057557600080fd5b505af1158015610589573d6000803e3d6000fd5b5050505050565b60026020528160005260406000206020528060005260406000206000915091509054906101000a900460ff1681565b60001515600260003373ffffffffffffffffffffffffffffffffffffffff1673ffffffffffffffffffffffffffffffffffffffff168152602001908152602001600020600085815260200190815260200160002060009054906101000a900460ff16151514610663576040517f08c379a000000000000000000000000000000000000000000000000000000000815260040161065a90610e71565b60405180910390fd5b6001600260003373ffffffffffffffffffffffffffffffffffffffff1673ffffffffffffffffffffffffffffffffffffffff168152602001908152602001600020600085815260200190815260200160002060006101000a81548160ff021916908315150217905550600160009054906101000a900473ffffffffffffffffffffffffffffffffffffffff1673ffffffffffffffffffffffffffffffffffffffff16639dc29fac33866040518363ffffffff1660e01b8152600401610729929190610dcd565b600060405180830381600087803b15801561074357600080fd5b505af1158015610757573d6000803e3d6000fd5b5050505060006003811115610795577f4e487b7100000000000000000000000000000000000000000000000000000000600052602160045260246000fd5b7fce5a9b86edd3b998c3948a7934c7ecf7dba73c4c5bcf56cf576bca4aa2beeb30338787428888886040516107d09796959493929190610d63565b60405180910390a25050505050565b60008054906101000a900473ffffffffffffffffffffffffffffffffffffffff1681565b600160009054906101000a900473ffffffffffffffffffffffffffffffffffffffff1681565b60008160405160200161083c9190610ceb565b604051602081830303815290604052805190602001209050919050565b600080600080610868856108ce565b809350819450829550505050600186848484604051600081526020016040526040516108979493929190610e11565b6020604051602081039080840390855afa1580156108b9573d6000803e3d6000fd5b50505060206040510351935050505092915050565b600080600060418451146108e157600080fd5b60008060006020870151925060408701519150606087015160001a90508083839550955095505050509193909250565b60008135905061092081610fc6565b92915050565b60008083601f84011261093857600080fd5b8235905067ffffffffffffffff81111561095157600080fd5b60208301915083600182028301111561096957600080fd5b9250929050565b60008135905061097f81610fdd565b92915050565b60008151905061099481610fdd565b92915050565b60008060008060008060a087890312156109b357600080fd5b60006109c189828a01610911565b96505060206109d289828a01610911565b95505060406109e389828a01610970565b94505060606109f489828a01610970565b935050608087013567ffffffffffffffff811115610a1157600080fd5b610a1d89828a01610926565b92509250509295509295509295565b60008060408385031215610a3f57600080fd5b6000610a4d85828601610911565b9250506020610a5e85828601610970565b9150509250929050565b600080600080600060808688031215610a8057600080fd5b6000610a8e88828901610911565b9550506020610a9f88828901610970565b9450506040610ab088828901610970565b935050606086013567ffffffffffffffff811115610acd57600080fd5b610ad988828901610926565b92509250509295509295909350565b600060208284031215610afa57600080fd5b6000610b0884828501610985565b91505092915050565b610b1a81610ede565b82525050565b610b31610b2c82610ede565b610f70565b82525050565b610b4081610ef0565b82525050565b610b4f81610efc565b82525050565b610b66610b6182610efc565b610f82565b82525050565b6000610b788385610eb1565b9350610b85838584610f61565b610b8e83610fa8565b840190509392505050565b610ba281610f3d565b82525050565b6000610bb5601c83610ed3565b91507f19457468657265756d205369676e6564204d6573736167653a0a3332000000006000830152601c82019050919050565b6000610bf5601a83610ec2565b91507f7472616e7366657220616c72656164792070726f6365737365640000000000006000830152602082019050919050565b6000610c35600f83610ec2565b91507f77726f6e67207369676e617475726500000000000000000000000000000000006000830152602082019050919050565b610c7181610f26565b82525050565b610c88610c8382610f26565b610f9e565b82525050565b610c9781610f30565b82525050565b6000610ca98287610b20565b601482019150610cb98286610b20565b601482019150610cc98285610c77565b602082019150610cd98284610c77565b60208201915081905095945050505050565b6000610cf682610ba8565b9150610d028284610b55565b60208201915081905092915050565b6000602082019050610d266000830184610b11565b92915050565b6000606082019050610d416000830186610b11565b610d4e6020830185610b11565b610d5b6040830184610c68565b949350505050565b600060c082019050610d78600083018a610b11565b610d856020830189610b11565b610d926040830188610c68565b610d9f6060830187610c68565b610dac6080830186610c68565b81810360a0830152610dbf818486610b6c565b905098975050505050505050565b6000604082019050610de26000830185610b11565b610def6020830184610c68565b9392505050565b6000602082019050610e0b6000830184610b37565b92915050565b6000608082019050610e266000830187610b46565b610e336020830186610c8e565b610e406040830185610b46565b610e4d6060830184610b46565b95945050505050565b6000602082019050610e6b6000830184610b99565b92915050565b60006020820190508181036000830152610e8a81610be8565b9050919050565b60006020820190508181036000830152610eaa81610c28565b9050919050565b600082825260208201905092915050565b600082825260208201905092915050565b600081905092915050565b6000610ee982610f06565b9050919050565b60008115159050919050565b6000819050919050565b600073ffffffffffffffffffffffffffffffffffffffff82169050919050565b6000819050919050565b600060ff82169050919050565b6000610f4882610f4f565b9050919050565b6000610f5a82610f06565b9050919050565b82818337600083830152505050565b6000610f7b82610f8c565b9050919050565b6000819050919050565b6000610f9782610fb9565b9050919050565b6000819050919050565b6000601f19601f8301169050919050565b60008160601b9050919050565b610fcf81610ede565b8114610fda57600080fd5b50565b610fe681610f26565b8114610ff157600080fd5b5056fea26469706673582212205348d56b2b36a876b79a4971ef29804f7ae51db9fae016a46f31f12be4d4695064736f6c63430008000033",
  "immutableReferences": {},
  "source": "pragma solidity ^0.8.0;\n\nimport './BridgeBase.sol';\n\ncontract BridgeBsc is BridgeBase {\n  constructor(address token) BridgeBase(token) {}\n\n  \n  function burn(address to, uint amount, uint nonce, bytes calldata signature) external {\n    require(processedNonces[msg.sender][nonce] == false, 'transfer already processed');\n    processedNonces[msg.sender][nonce] = true;\n    token.burn(msg.sender, amount);\n    emit Transfer(\n      msg.sender,\n      to,\n      amount,\n      block.timestamp,\n      nonce,\n      signature,\n      Step.Burn\n    );\n  }\n\n  function mint(\n    address from, \n    address to, \n    uint amount, \n    uint nonce,\n    bytes calldata signature\n  ) external {\n    bytes32 message = prefixed(keccak256(abi.encodePacked(\n      from, \n      to, \n      amount,\n      nonce\n    )));\n    require(recoverSigner(message, signature) == from , 'wrong signature');\n    require(processedNonces[from][nonce] == false, 'transfer already processed');\n    processedNonces[from][nonce] = true;\n    token.mint(to, amount);\n    emit Transfer(\n      from,\n      to,\n      amount,\n      block.timestamp,\n      nonce,\n      signature,\n      Step.Mint\n    );\n  }\n\n\n}\n",
  "sourcePath": "D:/Documents/myProject/INTERVIEW/dobby_bridgegaps/eth-bsc-decentralized-bridge/contracts/BridgeBsc.sol",
  "compiler": {
    "name": "solc",
    "version": "0.8.0+commit.c7dfd78e.Emscripten.clang"
  },
  "schemaVersion": "3.4.1",
  "updatedAt": "2021-11-06T16:22:13.049Z",
  "networkType": "ethereum",
  "devdoc": {
    "kind": "dev",
    "methods": {},
    "version": 1
  },
  "userdoc": {
    "kind": "user",
    "methods": {},
    "version": 1
  }
}