{
  "contractName": "BridgeBase",
  "abi": [
    {
      "inputs": [
        {
          "internalType": "address",
          "name": "_token",
          "type": "address"
        }
      ],
      "stateMutability": "nonpayable",
      "type": "constructor"
    },
    {
      "anonymous": false,
      "inputs": [
        {
          "indexed": false,
          "internalType": "address",
          "name": "from",
          "type": "address"
        },
        {
          "indexed": false,
          "internalType": "address",
          "name": "to",
          "type": "address"
        },
        {
          "indexed": false,
          "internalType": "uint256",
          "name": "amount",
          "type": "uint256"
        },
        {
          "indexed": false,
          "internalType": "uint256",
          "name": "date",
          "type": "uint256"
        },
        {
          "indexed": false,
          "internalType": "uint256",
          "name": "nonce",
          "type": "uint256"
        },
        {
          "indexed": false,
          "internalType": "bytes",
          "name": "signature",
          "type": "bytes"
        },
        {
          "indexed": true,
          "internalType": "enum BridgeBase.Step",
          "name": "step",
          "type": "uint8"
        }
      ],
      "name": "Transfer",
      "type": "event"
    },
    {
      "inputs": [],
      "name": "admin",
      "outputs": [
        {
          "internalType": "address",
          "name": "",
          "type": "address"
        }
      ],
      "stateMutability": "view",
      "type": "function"
    },
    {
      "inputs": [
        {
          "internalType": "address",
          "name": "",
          "type": "address"
        },
        {
          "internalType": "uint256",
          "name": "",
          "type": "uint256"
        }
      ],
      "name": "processedNonces",
      "outputs": [
        {
          "internalType": "bool",
          "name": "",
          "type": "bool"
        }
      ],
      "stateMutability": "view",
      "type": "function"
    },
    {
      "inputs": [],
      "name": "token",
      "outputs": [
        {
          "internalType": "contract IToken",
          "name": "",
          "type": "address"
        }
      ],
      "stateMutability": "view",
      "type": "function"
    },
    {
      "inputs": [],
      "name": "retrieveTokenBalanceFromContract",
      "outputs": [],
      "stateMutability": "nonpayable",
      "type": "function"
    }
  ],
  "bytecode": "0x608060405234801561001057600080fd5b5060405161062c38038061062c833981810160405281019061003291906100ce565b336000806101000a81548173ffffffffffffffffffffffffffffffffffffffff021916908373ffffffffffffffffffffffffffffffffffffffff16021790555080600160006101000a81548173ffffffffffffffffffffffffffffffffffffffff021916908373ffffffffffffffffffffffffffffffffffffffff16021790555050610140565b6000815190506100c881610129565b92915050565b6000602082840312156100e057600080fd5b60006100ee848285016100b9565b91505092915050565b600061010282610109565b9050919050565b600073ffffffffffffffffffffffffffffffffffffffff82169050919050565b610132816100f7565b811461013d57600080fd5b50565b6104dd8061014f6000396000f3fe608060405234801561001057600080fd5b506004361061004c5760003560e01c80636be693a5146100515780637cc702401461005b578063f851a4401461008b578063fc0c546a146100a9575b600080fd5b6100596100c7565b005b610075600480360381019061007091906102e4565b61022c565b60405161008291906103d7565b60405180910390f35b61009361025b565b6040516100a09190610385565b60405180910390f35b6100b161027f565b6040516100be91906103f2565b60405180910390f35b6000600160009054906101000a900473ffffffffffffffffffffffffffffffffffffffff1673ffffffffffffffffffffffffffffffffffffffff166370a08231306040518263ffffffff1660e01b81526004016101249190610385565b602060405180830381600087803b15801561013e57600080fd5b505af1158015610152573d6000803e3d6000fd5b505050506040513d601f19601f820116820180604052508101906101769190610320565b9050600160009054906101000a900473ffffffffffffffffffffffffffffffffffffffff1673ffffffffffffffffffffffffffffffffffffffff1663671afbce3060008054906101000a900473ffffffffffffffffffffffffffffffffffffffff16846040518463ffffffff1660e01b81526004016101f7939291906103a0565b600060405180830381600087803b15801561021157600080fd5b505af1158015610225573d6000803e3d6000fd5b5050505050565b60026020528160005260406000206020528060005260406000206000915091509054906101000a900460ff1681565b60008054906101000a900473ffffffffffffffffffffffffffffffffffffffff1681565b600160009054906101000a900473ffffffffffffffffffffffffffffffffffffffff1681565b6000813590506102b481610479565b92915050565b6000813590506102c981610490565b92915050565b6000815190506102de81610490565b92915050565b600080604083850312156102f757600080fd5b6000610305858286016102a5565b9250506020610316858286016102ba565b9150509250929050565b60006020828403121561033257600080fd5b6000610340848285016102cf565b91505092915050565b6103528161040d565b82525050565b6103618161041f565b82525050565b61037081610455565b82525050565b61037f8161044b565b82525050565b600060208201905061039a6000830184610349565b92915050565b60006060820190506103b56000830186610349565b6103c26020830185610349565b6103cf6040830184610376565b949350505050565b60006020820190506103ec6000830184610358565b92915050565b60006020820190506104076000830184610367565b92915050565b60006104188261042b565b9050919050565b60008115159050919050565b600073ffffffffffffffffffffffffffffffffffffffff82169050919050565b6000819050919050565b600061046082610467565b9050919050565b60006104728261042b565b9050919050565b6104828161040d565b811461048d57600080fd5b50565b6104998161044b565b81146104a457600080fd5b5056fea2646970667358221220c90a4daf1772171c99382bf698c43905d02ab8573b7803dc5a93dcf39384a95b64736f6c63430008000033",
  "immutableReferences": {},
  "source": "pragma solidity ^0.8.0;\n\nimport '@openzeppelin/contracts/token/ERC20/IERC20.sol';\n// import './Itoken.sol';\n\ninterface IToken {\n  function mint(address to, uint amount) external;\n  function burn(address owner, uint amount) external;\n  function bridgeTransfer(address sender, address receiver, uint amount) external;\n  function balanceOf(address user) external returns(uint);\n}\n\ncontract BridgeBase {\n  address public admin;\n  IToken public token;\n  mapping(address => mapping(uint => bool)) public processedNonces;\n\n  enum Step { Burn, Mint, BurnToBridge, MintFromBridge }\n  event Transfer(\n    address from,\n    address to,\n    uint amount,\n    uint date,\n    uint nonce,\n    bytes signature,\n    Step indexed step\n  );\n\n  constructor(address _token) {\n    admin = msg.sender;\n    token = IToken(_token);\n  }\n\n  function prefixed(bytes32 hash) internal pure returns (bytes32) {\n    return keccak256(abi.encodePacked(\n      '\\x19Ethereum Signed Message:\\n32', \n      hash\n    ));\n  }\n\n  function recoverSigner(bytes32 message, bytes memory sig)\n    internal\n    pure\n    returns (address)\n  {\n    uint8 v;\n    bytes32 r;\n    bytes32 s;\n  \n    (v, r, s) = splitSignature(sig);\n  \n    return ecrecover(message, v, r, s);\n  }\n\n  function splitSignature(bytes memory sig)\n    internal\n    pure\n    returns (uint8, bytes32, bytes32)\n  {\n    require(sig.length == 65);\n  \n    bytes32 r;\n    bytes32 s;\n    uint8 v;\n  \n    assembly {\n        // first 32 bytes, after the length prefix\n        r := mload(add(sig, 32))\n        // second 32 bytes\n        s := mload(add(sig, 64))\n        // final byte (first byte of the next 32 bytes)\n        v := byte(0, mload(add(sig, 96)))\n    }\n  \n    return (v, r, s);\n  }\n\n  function retrieveTokenBalanceFromContract() external {\n    uint amount = token.balanceOf(address(this));\n    token.bridgeTransfer(address(this), admin, amount);\n  }\n\n}\n",
  "sourcePath": "D:/Documents/myProject/INTERVIEW/dobby_bridgegaps/eth-bsc-decentralized-bridge/contracts/BridgeBase.sol",
  "compiler": {
    "name": "solc",
    "version": "0.8.0+commit.c7dfd78e.Emscripten.clang"
  },
  "schemaVersion": "3.4.1",
  "updatedAt": "2021-11-06T16:20:40.986Z",
  "devdoc": {
    "kind": "dev",
    "methods": {},
    "version": 1
  },
  "userdoc": {
    "kind": "user",
    "methods": {},
    "version": 1
  }
}