{
  "contractName": "BridgeEth",
  "abi": [
    {
      "inputs": [
        {
          "internalType": "address",
          "name": "token",
          "type": "address"
        }
      ],
      "stateMutability": "nonpayable",
      "type": "constructor"
    },
    {
      "anonymous": false,
      "inputs": [
        {
          "indexed": false,
          "internalType": "address",
          "name": "from",
          "type": "address"
        },
        {
          "indexed": false,
          "internalType": "address",
          "name": "to",
          "type": "address"
        },
        {
          "indexed": false,
          "internalType": "uint256",
          "name": "amount",
          "type": "uint256"
        },
        {
          "indexed": false,
          "internalType": "uint256",
          "name": "date",
          "type": "uint256"
        },
        {
          "indexed": false,
          "internalType": "uint256",
          "name": "nonce",
          "type": "uint256"
        },
        {
          "indexed": false,
          "internalType": "bytes",
          "name": "signature",
          "type": "bytes"
        },
        {
          "indexed": true,
          "internalType": "enum BridgeBase.Step",
          "name": "step",
          "type": "uint8"
        }
      ],
      "name": "Transfer",
      "type": "event"
    },
    {
      "inputs": [],
      "name": "admin",
      "outputs": [
        {
          "internalType": "address",
          "name": "",
          "type": "address"
        }
      ],
      "stateMutability": "view",
      "type": "function",
      "constant": true
    },
    {
      "inputs": [
        {
          "internalType": "address",
          "name": "",
          "type": "address"
        },
        {
          "internalType": "uint256",
          "name": "",
          "type": "uint256"
        }
      ],
      "name": "processedNonces",
      "outputs": [
        {
          "internalType": "bool",
          "name": "",
          "type": "bool"
        }
      ],
      "stateMutability": "view",
      "type": "function",
      "constant": true
    },
    {
      "inputs": [],
      "name": "retrieveTokenBalanceFromContract",
      "outputs": [],
      "stateMutability": "nonpayable",
      "type": "function"
    },
    {
      "inputs": [],
      "name": "token",
      "outputs": [
        {
          "internalType": "contract IToken",
          "name": "",
          "type": "address"
        }
      ],
      "stateMutability": "view",
      "type": "function",
      "constant": true
    },
    {
      "inputs": [
        {
          "internalType": "address",
          "name": "to",
          "type": "address"
        },
        {
          "internalType": "uint256",
          "name": "amount",
          "type": "uint256"
        },
        {
          "internalType": "uint256",
          "name": "nonce",
          "type": "uint256"
        },
        {
          "internalType": "bytes",
          "name": "signature",
          "type": "bytes"
        }
      ],
      "name": "burn",
      "outputs": [],
      "stateMutability": "nonpayable",
      "type": "function"
    },
    {
      "inputs": [
        {
          "internalType": "address",
          "name": "from",
          "type": "address"
        },
        {
          "internalType": "address",
          "name": "to",
          "type": "address"
        },
        {
          "internalType": "uint256",
          "name": "amount",
          "type": "uint256"
        },
        {
          "internalType": "uint256",
          "name": "nonce",
          "type": "uint256"
        },
        {
          "internalType": "bytes",
          "name": "signature",
          "type": "bytes"
        }
      ],
      "name": "mint",
      "outputs": [],
      "stateMutability": "nonpayable",
      "type": "function"
    }
  ],
  "bytecode": "0x608060405234801561001057600080fd5b50604051611155380380611155833981810160405281019061003291906100d0565b80336000806101000a81548173ffffffffffffffffffffffffffffffffffffffff021916908373ffffffffffffffffffffffffffffffffffffffff16021790555080600160006101000a81548173ffffffffffffffffffffffffffffffffffffffff021916908373ffffffffffffffffffffffffffffffffffffffff1602179055505050610142565b6000815190506100ca8161012b565b92915050565b6000602082840312156100e257600080fd5b60006100f0848285016100bb565b91505092915050565b60006101048261010b565b9050919050565b600073ffffffffffffffffffffffffffffffffffffffff82169050919050565b610134816100f9565b811461013f57600080fd5b50565b611004806101516000396000f3fe608060405234801561001057600080fd5b50600436106100625760003560e01c806352555702146100675780636be693a5146100835780637cc702401461008d5780638a94b05f146100bd578063f851a440146100d9578063fc0c546a146100f7575b600080fd5b610081600480360381019061007c919061099d565b610115565b005b61008b61042c565b005b6100a760048036038101906100a29190610a2f565b610591565b6040516100b49190610dd0565b60405180910390f35b6100d760048036038101906100d29190610a6b565b6105c0565b005b6100e16107e2565b6040516100ee9190610d14565b60405180910390f35b6100ff610806565b60405161010c9190610e30565b60405180910390f35b600061014c878787876040516020016101319493929190610ca0565b6040516020818303038152906040528051906020012061082c565b90508673ffffffffffffffffffffffffffffffffffffffff166101b38285858080601f016020809104026020016040519081016040528093929190818152602001838380828437600081840152601f19601f8201169050808301925050505050505061085c565b73ffffffffffffffffffffffffffffffffffffffff1614610209576040517f08c379a000000000000000000000000000000000000000000000000000000000815260040161020090610e6b565b60405180910390fd5b60001515600260008973ffffffffffffffffffffffffffffffffffffffff1673ffffffffffffffffffffffffffffffffffffffff168152602001908152602001600020600086815260200190815260200160002060009054906101000a900460ff161515146102ad576040517f08c379a00000000000000000000000000000000000000000000000000000000081526004016102a490610e4b565b60405180910390fd5b6001600260008973ffffffffffffffffffffffffffffffffffffffff1673ffffffffffffffffffffffffffffffffffffffff168152602001908152602001600020600086815260200190815260200160002060006101000a81548160ff021916908315150217905550600160009054906101000a900473ffffffffffffffffffffffffffffffffffffffff1673ffffffffffffffffffffffffffffffffffffffff1663671afbce3088886040518463ffffffff1660e01b815260040161037593929190610d2f565b600060405180830381600087803b15801561038f57600080fd5b505af11580156103a3573d6000803e3d6000fd5b505050506003808111156103e0577f4e487b7100000000000000000000000000000000000000000000000000000000600052602160045260246000fd5b7fce5a9b86edd3b998c3948a7934c7ecf7dba73c4c5bcf56cf576bca4aa2beeb308888884289898960405161041b9796959493929190610d66565b60405180910390a250505050505050565b6000600160009054906101000a900473ffffffffffffffffffffffffffffffffffffffff1673ffffffffffffffffffffffffffffffffffffffff166370a08231306040518263ffffffff1660e01b81526004016104899190610d14565b602060405180830381600087803b1580156104a357600080fd5b505af11580156104b7573d6000803e3d6000fd5b505050506040513d601f19601f820116820180604052508101906104db9190610aeb565b9050600160009054906101000a900473ffffffffffffffffffffffffffffffffffffffff1673ffffffffffffffffffffffffffffffffffffffff1663671afbce3060008054906101000a900473ffffffffffffffffffffffffffffffffffffffff16846040518463ffffffff1660e01b815260040161055c93929190610d2f565b600060405180830381600087803b15801561057657600080fd5b505af115801561058a573d6000803e3d6000fd5b5050505050565b60026020528160005260406000206020528060005260406000206000915091509054906101000a900460ff1681565b60001515600260003373ffffffffffffffffffffffffffffffffffffffff1673ffffffffffffffffffffffffffffffffffffffff168152602001908152602001600020600085815260200190815260200160002060009054906101000a900460ff16151514610664576040517f08c379a000000000000000000000000000000000000000000000000000000000815260040161065b90610e4b565b60405180910390fd5b6001600260003373ffffffffffffffffffffffffffffffffffffffff1673ffffffffffffffffffffffffffffffffffffffff168152602001908152602001600020600085815260200190815260200160002060006101000a81548160ff021916908315150217905550600160009054906101000a900473ffffffffffffffffffffffffffffffffffffffff1673ffffffffffffffffffffffffffffffffffffffff1663671afbce3330876040518463ffffffff1660e01b815260040161072c93929190610d2f565b600060405180830381600087803b15801561074657600080fd5b505af115801561075a573d6000803e3d6000fd5b5050505060026003811115610798577f4e487b7100000000000000000000000000000000000000000000000000000000600052602160045260246000fd5b7fce5a9b86edd3b998c3948a7934c7ecf7dba73c4c5bcf56cf576bca4aa2beeb30338787428888886040516107d39796959493929190610d66565b60405180910390a25050505050565b60008054906101000a900473ffffffffffffffffffffffffffffffffffffffff1681565b600160009054906101000a900473ffffffffffffffffffffffffffffffffffffffff1681565b60008160405160200161083f9190610cee565b604051602081830303815290604052805190602001209050919050565b60008060008061086b856108d1565b8093508194508295505050506001868484846040516000815260200160405260405161089a9493929190610deb565b6020604051602081039080840390855afa1580156108bc573d6000803e3d6000fd5b50505060206040510351935050505092915050565b600080600060418451146108e457600080fd5b60008060006020870151925060408701519150606087015160001a90508083839550955095505050509193909250565b60008135905061092381610fa0565b92915050565b60008083601f84011261093b57600080fd5b8235905067ffffffffffffffff81111561095457600080fd5b60208301915083600182028301111561096c57600080fd5b9250929050565b60008135905061098281610fb7565b92915050565b60008151905061099781610fb7565b92915050565b60008060008060008060a087890312156109b657600080fd5b60006109c489828a01610914565b96505060206109d589828a01610914565b95505060406109e689828a01610973565b94505060606109f789828a01610973565b935050608087013567ffffffffffffffff811115610a1457600080fd5b610a2089828a01610929565b92509250509295509295509295565b60008060408385031215610a4257600080fd5b6000610a5085828601610914565b9250506020610a6185828601610973565b9150509250929050565b600080600080600060808688031215610a8357600080fd5b6000610a9188828901610914565b9550506020610aa288828901610973565b9450506040610ab388828901610973565b935050606086013567ffffffffffffffff811115610ad057600080fd5b610adc88828901610929565b92509250509295509295909350565b600060208284031215610afd57600080fd5b6000610b0b84828501610988565b91505092915050565b610b1d81610eb8565b82525050565b610b34610b2f82610eb8565b610f4a565b82525050565b610b4381610eca565b82525050565b610b5281610ed6565b82525050565b610b69610b6482610ed6565b610f5c565b82525050565b6000610b7b8385610e8b565b9350610b88838584610f3b565b610b9183610f82565b840190509392505050565b610ba581610f17565b82525050565b6000610bb8601c83610ead565b91507f19457468657265756d205369676e6564204d6573736167653a0a3332000000006000830152601c82019050919050565b6000610bf8601a83610e9c565b91507f7472616e7366657220616c72656164792070726f6365737365640000000000006000830152602082019050919050565b6000610c38600f83610e9c565b91507f77726f6e67207369676e617475726500000000000000000000000000000000006000830152602082019050919050565b610c7481610f00565b82525050565b610c8b610c8682610f00565b610f78565b82525050565b610c9a81610f0a565b82525050565b6000610cac8287610b23565b601482019150610cbc8286610b23565b601482019150610ccc8285610c7a565b602082019150610cdc8284610c7a565b60208201915081905095945050505050565b6000610cf982610bab565b9150610d058284610b58565b60208201915081905092915050565b6000602082019050610d296000830184610b14565b92915050565b6000606082019050610d446000830186610b14565b610d516020830185610b14565b610d5e6040830184610c6b565b949350505050565b600060c082019050610d7b600083018a610b14565b610d886020830189610b14565b610d956040830188610c6b565b610da26060830187610c6b565b610daf6080830186610c6b565b81810360a0830152610dc2818486610b6f565b905098975050505050505050565b6000602082019050610de56000830184610b3a565b92915050565b6000608082019050610e006000830187610b49565b610e0d6020830186610c91565b610e1a6040830185610b49565b610e276060830184610b49565b95945050505050565b6000602082019050610e456000830184610b9c565b92915050565b60006020820190508181036000830152610e6481610beb565b9050919050565b60006020820190508181036000830152610e8481610c2b565b9050919050565b600082825260208201905092915050565b600082825260208201905092915050565b600081905092915050565b6000610ec382610ee0565b9050919050565b60008115159050919050565b6000819050919050565b600073ffffffffffffffffffffffffffffffffffffffff82169050919050565b6000819050919050565b600060ff82169050919050565b6000610f2282610f29565b9050919050565b6000610f3482610ee0565b9050919050565b82818337600083830152505050565b6000610f5582610f66565b9050919050565b6000819050919050565b6000610f7182610f93565b9050919050565b6000819050919050565b6000601f19601f8301169050919050565b60008160601b9050919050565b610fa981610eb8565b8114610fb457600080fd5b50565b610fc081610f00565b8114610fcb57600080fd5b5056fea264697066735822122083fa9d51e8e88fb2155a621cf34962a81084be2e6bf15cbe0933b4eb7496021d64736f6c63430008000033",
  "immutableReferences": {},
  "source": "pragma solidity ^0.8.0;\n\nimport './BridgeBase.sol';\n\ncontract BridgeEth is BridgeBase {\n  constructor(address token) BridgeBase(token) {}\n\n  function burn(address to, uint amount, uint nonce, bytes calldata signature) external {\n    require(processedNonces[msg.sender][nonce] == false, 'transfer already processed');\n    processedNonces[msg.sender][nonce] = true;\n    token.bridgeTransfer(msg.sender, address(this), amount);\n    emit Transfer(\n      msg.sender,\n      to,\n      amount,\n      block.timestamp,\n      nonce,\n      signature,\n      Step.BurnToBridge\n    );\n  }\n\n  function mint(\n    address from, \n    address to, \n    uint amount, \n    uint nonce,\n    bytes calldata signature\n  ) external {\n\n    bytes32 message = prefixed(keccak256(abi.encodePacked(\n      from, \n      to, \n      amount,\n      nonce\n    )));\n    \n    require(recoverSigner(message, signature) == from , 'wrong signature');\n    require(processedNonces[from][nonce] == false, 'transfer already processed');\n    processedNonces[from][nonce] = true;\n\n    token.bridgeTransfer(address(this), to, amount);\n    emit Transfer(\n      from,\n      to,\n      amount,\n      block.timestamp,\n      nonce,\n      signature,\n      Step.MintFromBridge\n    );\n  }\n\n}\n",
  "sourcePath": "D:/Documents/myProject/INTERVIEW/dobby_bridgegaps/eth-bsc-decentralized-bridge/contracts/BridgeEth.sol",
  "compiler": {
    "name": "solc",
    "version": "0.8.0+commit.c7dfd78e.Emscripten.clang"
  },
  "schemaVersion": "3.4.1",
  "updatedAt": "2021-11-06T16:22:13.040Z",
  "networkType": "ethereum",
  "devdoc": {
    "kind": "dev",
    "methods": {},
    "version": 1
  },
  "userdoc": {
    "kind": "user",
    "methods": {},
    "version": 1
  }
}